{
  "_format": "hh-sol-artifact-1",
  "contractName": "Nfvs",
  "sourceName": "contracts/Nfvs.sol",
  "abi": [
    {
      "inputs": [
        {
          "internalType": "string",
          "name": "name",
          "type": "string"
        },
        {
          "internalType": "string",
          "name": "symbol",
          "type": "string"
        }
      ],
      "stateMutability": "nonpayable",
      "type": "constructor"
    },
    {
      "anonymous": false,
      "inputs": [
        {
          "indexed": true,
          "internalType": "address",
          "name": "owner",
          "type": "address"
        },
        {
          "indexed": true,
          "internalType": "address",
          "name": "approved",
          "type": "address"
        },
        {
          "indexed": true,
          "internalType": "uint256",
          "name": "tokenId",
          "type": "uint256"
        }
      ],
      "name": "Approval",
      "type": "event"
    },
    {
      "anonymous": false,
      "inputs": [
        {
          "indexed": true,
          "internalType": "address",
          "name": "owner",
          "type": "address"
        },
        {
          "indexed": true,
          "internalType": "address",
          "name": "operator",
          "type": "address"
        },
        {
          "indexed": false,
          "internalType": "bool",
          "name": "approved",
          "type": "bool"
        }
      ],
      "name": "ApprovalForAll",
      "type": "event"
    },
    {
      "anonymous": false,
      "inputs": [
        {
          "indexed": false,
          "internalType": "address",
          "name": "account",
          "type": "address"
        }
      ],
      "name": "Paused",
      "type": "event"
    },
    {
      "anonymous": false,
      "inputs": [
        {
          "indexed": true,
          "internalType": "bytes32",
          "name": "role",
          "type": "bytes32"
        },
        {
          "indexed": true,
          "internalType": "bytes32",
          "name": "previousAdminRole",
          "type": "bytes32"
        },
        {
          "indexed": true,
          "internalType": "bytes32",
          "name": "newAdminRole",
          "type": "bytes32"
        }
      ],
      "name": "RoleAdminChanged",
      "type": "event"
    },
    {
      "anonymous": false,
      "inputs": [
        {
          "indexed": true,
          "internalType": "bytes32",
          "name": "role",
          "type": "bytes32"
        },
        {
          "indexed": true,
          "internalType": "address",
          "name": "account",
          "type": "address"
        },
        {
          "indexed": true,
          "internalType": "address",
          "name": "sender",
          "type": "address"
        }
      ],
      "name": "RoleGranted",
      "type": "event"
    },
    {
      "anonymous": false,
      "inputs": [
        {
          "indexed": true,
          "internalType": "bytes32",
          "name": "role",
          "type": "bytes32"
        },
        {
          "indexed": true,
          "internalType": "address",
          "name": "account",
          "type": "address"
        },
        {
          "indexed": true,
          "internalType": "address",
          "name": "sender",
          "type": "address"
        }
      ],
      "name": "RoleRevoked",
      "type": "event"
    },
    {
      "anonymous": false,
      "inputs": [
        {
          "indexed": true,
          "internalType": "address",
          "name": "from",
          "type": "address"
        },
        {
          "indexed": true,
          "internalType": "address",
          "name": "to",
          "type": "address"
        },
        {
          "indexed": true,
          "internalType": "uint256",
          "name": "tokenId",
          "type": "uint256"
        }
      ],
      "name": "Transfer",
      "type": "event"
    },
    {
      "anonymous": false,
      "inputs": [
        {
          "indexed": false,
          "internalType": "address",
          "name": "account",
          "type": "address"
        }
      ],
      "name": "Unpaused",
      "type": "event"
    },
    {
      "inputs": [],
      "name": "DEFAULT_ADMIN_ROLE",
      "outputs": [
        {
          "internalType": "bytes32",
          "name": "",
          "type": "bytes32"
        }
      ],
      "stateMutability": "view",
      "type": "function"
    },
    {
      "inputs": [],
      "name": "EQUIPPER_ROLE",
      "outputs": [
        {
          "internalType": "bytes32",
          "name": "",
          "type": "bytes32"
        }
      ],
      "stateMutability": "view",
      "type": "function"
    },
    {
      "inputs": [],
      "name": "MAX_LAMBOS",
      "outputs": [
        {
          "internalType": "uint256",
          "name": "",
          "type": "uint256"
        }
      ],
      "stateMutability": "view",
      "type": "function"
    },
    {
      "inputs": [],
      "name": "MINTER_ROLE",
      "outputs": [
        {
          "internalType": "bytes32",
          "name": "",
          "type": "bytes32"
        }
      ],
      "stateMutability": "view",
      "type": "function"
    },
    {
      "inputs": [],
      "name": "RENTER_ROLE",
      "outputs": [
        {
          "internalType": "bytes32",
          "name": "",
          "type": "bytes32"
        }
      ],
      "stateMutability": "view",
      "type": "function"
    },
    {
      "inputs": [
        {
          "internalType": "address",
          "name": "to",
          "type": "address"
        },
        {
          "internalType": "uint256",
          "name": "tokenId",
          "type": "uint256"
        }
      ],
      "name": "approve",
      "outputs": [],
      "stateMutability": "nonpayable",
      "type": "function"
    },
    {
      "inputs": [
        {
          "internalType": "address",
          "name": "owner",
          "type": "address"
        }
      ],
      "name": "balanceOf",
      "outputs": [
        {
          "internalType": "uint256",
          "name": "",
          "type": "uint256"
        }
      ],
      "stateMutability": "view",
      "type": "function"
    },
    {
      "inputs": [
        {
          "internalType": "uint256",
          "name": "tokenId",
          "type": "uint256"
        }
      ],
      "name": "cancelRent",
      "outputs": [],
      "stateMutability": "nonpayable",
      "type": "function"
    },
    {
      "inputs": [
        {
          "components": [
            {
              "internalType": "address",
              "name": "imp",
              "type": "address"
            },
            {
              "internalType": "uint256",
              "name": "tokenId",
              "type": "uint256"
            }
          ],
          "internalType": "struct Nfvs.Nft",
          "name": "nft",
          "type": "tuple"
        }
      ],
      "name": "equip",
      "outputs": [],
      "stateMutability": "nonpayable",
      "type": "function"
    },
    {
      "inputs": [
        {
          "internalType": "uint256",
          "name": "tokenId",
          "type": "uint256"
        }
      ],
      "name": "getApproved",
      "outputs": [
        {
          "internalType": "address",
          "name": "",
          "type": "address"
        }
      ],
      "stateMutability": "view",
      "type": "function"
    },
    {
      "inputs": [
        {
          "internalType": "bytes32",
          "name": "role",
          "type": "bytes32"
        }
      ],
      "name": "getRoleAdmin",
      "outputs": [
        {
          "internalType": "bytes32",
          "name": "",
          "type": "bytes32"
        }
      ],
      "stateMutability": "view",
      "type": "function"
    },
    {
      "inputs": [
        {
          "internalType": "bytes32",
          "name": "role",
          "type": "bytes32"
        },
        {
          "internalType": "address",
          "name": "account",
          "type": "address"
        }
      ],
      "name": "grantRole",
      "outputs": [],
      "stateMutability": "nonpayable",
      "type": "function"
    },
    {
      "inputs": [
        {
          "internalType": "bytes32",
          "name": "role",
          "type": "bytes32"
        },
        {
          "internalType": "address",
          "name": "account",
          "type": "address"
        }
      ],
      "name": "hasRole",
      "outputs": [
        {
          "internalType": "bool",
          "name": "",
          "type": "bool"
        }
      ],
      "stateMutability": "view",
      "type": "function"
    },
    {
      "inputs": [
        {
          "internalType": "address",
          "name": "owner",
          "type": "address"
        },
        {
          "internalType": "address",
          "name": "operator",
          "type": "address"
        }
      ],
      "name": "isApprovedForAll",
      "outputs": [
        {
          "internalType": "bool",
          "name": "",
          "type": "bool"
        }
      ],
      "stateMutability": "view",
      "type": "function"
    },
    {
      "inputs": [
        {
          "internalType": "uint256",
          "name": "tokenId",
          "type": "uint256"
        }
      ],
      "name": "isUnderRent",
      "outputs": [
        {
          "internalType": "bool",
          "name": "",
          "type": "bool"
        }
      ],
      "stateMutability": "view",
      "type": "function"
    },
    {
      "inputs": [
        {
          "internalType": "address",
          "name": "to",
          "type": "address"
        },
        {
          "internalType": "uint256",
          "name": "numberOf",
          "type": "uint256"
        }
      ],
      "name": "mint",
      "outputs": [],
      "stateMutability": "nonpayable",
      "type": "function"
    },
    {
      "inputs": [
        {
          "internalType": "address",
          "name": "to",
          "type": "address"
        }
      ],
      "name": "mintOne",
      "outputs": [],
      "stateMutability": "nonpayable",
      "type": "function"
    },
    {
      "inputs": [],
      "name": "name",
      "outputs": [
        {
          "internalType": "string",
          "name": "",
          "type": "string"
        }
      ],
      "stateMutability": "view",
      "type": "function"
    },
    {
      "inputs": [
        {
          "internalType": "uint256",
          "name": "tokenId",
          "type": "uint256"
        }
      ],
      "name": "ownerOf",
      "outputs": [
        {
          "internalType": "address",
          "name": "",
          "type": "address"
        }
      ],
      "stateMutability": "view",
      "type": "function"
    },
    {
      "inputs": [],
      "name": "pause",
      "outputs": [],
      "stateMutability": "nonpayable",
      "type": "function"
    },
    {
      "inputs": [],
      "name": "paused",
      "outputs": [
        {
          "internalType": "bool",
          "name": "",
          "type": "bool"
        }
      ],
      "stateMutability": "view",
      "type": "function"
    },
    {
      "inputs": [
        {
          "internalType": "bytes32",
          "name": "role",
          "type": "bytes32"
        },
        {
          "internalType": "address",
          "name": "account",
          "type": "address"
        }
      ],
      "name": "renounceRole",
      "outputs": [],
      "stateMutability": "nonpayable",
      "type": "function"
    },
    {
      "inputs": [
        {
          "internalType": "uint256",
          "name": "tokenId",
          "type": "uint256"
        }
      ],
      "name": "rentInfo",
      "outputs": [
        {
          "internalType": "address",
          "name": "originalOwner",
          "type": "address"
        },
        {
          "internalType": "uint256",
          "name": "endsAt",
          "type": "uint256"
        }
      ],
      "stateMutability": "view",
      "type": "function"
    },
    {
      "inputs": [
        {
          "internalType": "uint256",
          "name": "tokenId",
          "type": "uint256"
        },
        {
          "internalType": "address",
          "name": "to",
          "type": "address"
        },
        {
          "internalType": "uint256",
          "name": "period",
          "type": "uint256"
        }
      ],
      "name": "rentTo",
      "outputs": [],
      "stateMutability": "nonpayable",
      "type": "function"
    },
    {
      "inputs": [
        {
          "internalType": "uint256",
          "name": "tokenId",
          "type": "uint256"
        }
      ],
      "name": "returnRented",
      "outputs": [],
      "stateMutability": "nonpayable",
      "type": "function"
    },
    {
      "inputs": [
        {
          "internalType": "bytes32",
          "name": "role",
          "type": "bytes32"
        },
        {
          "internalType": "address",
          "name": "account",
          "type": "address"
        }
      ],
      "name": "revokeRole",
      "outputs": [],
      "stateMutability": "nonpayable",
      "type": "function"
    },
    {
      "inputs": [
        {
          "internalType": "uint256",
          "name": "_tokenId",
          "type": "uint256"
        },
        {
          "internalType": "uint256",
          "name": "_salePrice",
          "type": "uint256"
        }
      ],
      "name": "royaltyInfo",
      "outputs": [
        {
          "internalType": "address",
          "name": "",
          "type": "address"
        },
        {
          "internalType": "uint256",
          "name": "",
          "type": "uint256"
        }
      ],
      "stateMutability": "view",
      "type": "function"
    },
    {
      "inputs": [
        {
          "internalType": "address",
          "name": "from",
          "type": "address"
        },
        {
          "internalType": "address",
          "name": "to",
          "type": "address"
        },
        {
          "internalType": "uint256",
          "name": "tokenId",
          "type": "uint256"
        }
      ],
      "name": "safeTransferFrom",
      "outputs": [],
      "stateMutability": "nonpayable",
      "type": "function"
    },
    {
      "inputs": [
        {
          "internalType": "address",
          "name": "from",
          "type": "address"
        },
        {
          "internalType": "address",
          "name": "to",
          "type": "address"
        },
        {
          "internalType": "uint256",
          "name": "tokenId",
          "type": "uint256"
        },
        {
          "internalType": "bytes",
          "name": "data",
          "type": "bytes"
        }
      ],
      "name": "safeTransferFrom",
      "outputs": [],
      "stateMutability": "nonpayable",
      "type": "function"
    },
    {
      "inputs": [
        {
          "internalType": "address",
          "name": "operator",
          "type": "address"
        },
        {
          "internalType": "bool",
          "name": "approved",
          "type": "bool"
        }
      ],
      "name": "setApprovalForAll",
      "outputs": [],
      "stateMutability": "nonpayable",
      "type": "function"
    },
    {
      "inputs": [
        {
          "internalType": "string",
          "name": "_newUri",
          "type": "string"
        }
      ],
      "name": "setBaseURI",
      "outputs": [],
      "stateMutability": "nonpayable",
      "type": "function"
    },
    {
      "inputs": [
        {
          "internalType": "address",
          "name": "receiver",
          "type": "address"
        },
        {
          "internalType": "uint96",
          "name": "feeNumerator",
          "type": "uint96"
        }
      ],
      "name": "setRoyalty",
      "outputs": [],
      "stateMutability": "nonpayable",
      "type": "function"
    },
    {
      "inputs": [
        {
          "internalType": "bytes4",
          "name": "interfaceId",
          "type": "bytes4"
        }
      ],
      "name": "supportsInterface",
      "outputs": [
        {
          "internalType": "bool",
          "name": "",
          "type": "bool"
        }
      ],
      "stateMutability": "view",
      "type": "function"
    },
    {
      "inputs": [],
      "name": "symbol",
      "outputs": [
        {
          "internalType": "string",
          "name": "",
          "type": "string"
        }
      ],
      "stateMutability": "view",
      "type": "function"
    },
    {
      "inputs": [
        {
          "internalType": "uint256",
          "name": "index",
          "type": "uint256"
        }
      ],
      "name": "tokenByIndex",
      "outputs": [
        {
          "internalType": "uint256",
          "name": "",
          "type": "uint256"
        }
      ],
      "stateMutability": "view",
      "type": "function"
    },
    {
      "inputs": [
        {
          "internalType": "address",
          "name": "owner",
          "type": "address"
        },
        {
          "internalType": "uint256",
          "name": "index",
          "type": "uint256"
        }
      ],
      "name": "tokenOfOwnerByIndex",
      "outputs": [
        {
          "internalType": "uint256",
          "name": "",
          "type": "uint256"
        }
      ],
      "stateMutability": "view",
      "type": "function"
    },
    {
      "inputs": [
        {
          "internalType": "uint256",
          "name": "tokenId",
          "type": "uint256"
        }
      ],
      "name": "tokenURI",
      "outputs": [
        {
          "internalType": "string",
          "name": "",
          "type": "string"
        }
      ],
      "stateMutability": "view",
      "type": "function"
    },
    {
      "inputs": [
        {
          "internalType": "address",
          "name": "_owner",
          "type": "address"
        }
      ],
      "name": "tokensOfOwner",
      "outputs": [
        {
          "internalType": "uint256[]",
          "name": "",
          "type": "uint256[]"
        }
      ],
      "stateMutability": "view",
      "type": "function"
    },
    {
      "inputs": [],
      "name": "totalSupply",
      "outputs": [
        {
          "internalType": "uint256",
          "name": "",
          "type": "uint256"
        }
      ],
      "stateMutability": "view",
      "type": "function"
    },
    {
      "inputs": [
        {
          "internalType": "address",
          "name": "from",
          "type": "address"
        },
        {
          "internalType": "address",
          "name": "to",
          "type": "address"
        },
        {
          "internalType": "uint256",
          "name": "tokenId",
          "type": "uint256"
        }
      ],
      "name": "transferFrom",
      "outputs": [],
      "stateMutability": "nonpayable",
      "type": "function"
    },
    {
      "inputs": [],
      "name": "unpause",
      "outputs": [],
      "stateMutability": "nonpayable",
      "type": "function"
    }
  ],
  "bytecode": "0x60806040523480156200001157600080fd5b50604051620059ec380380620059ec83398181016040528101906200003791906200044e565b818181600290816200004a91906200071e565b5080600390816200005c91906200071e565b5050506000600c60006101000a81548160ff0219169083151502179055506200008f6000801b336200014160201b60201c565b620000c17f9f2df0fed2c77648de5860a4cc508cd0818c85b8b8a1ab4ceeef8d981c8956a6336200014160201b60201c565b620000f37f3b652633b3026fa70803ad50b58b0ae884cefe3497643f62c67c466f41a6e88d336200014160201b60201c565b620001396040518060400160405280601781526020017f68747470733a2f2f746f646f2e77656e2e6c616d626f2f0000000000000000008152506200023360201b60201c565b505062000805565b6200015382826200024860201b60201c565b6200022f576001600d600084815260200190815260200160002060000160008373ffffffffffffffffffffffffffffffffffffffff1673ffffffffffffffffffffffffffffffffffffffff16815260200190815260200160002060006101000a81548160ff021916908315150217905550620001d4620002b360201b60201c565b73ffffffffffffffffffffffffffffffffffffffff168173ffffffffffffffffffffffffffffffffffffffff16837f2f8788117e7eff1d82e926ec794901d17c78024a50270940304540a733656f0d60405160405180910390a45b5050565b80600f90816200024491906200071e565b5050565b6000600d600084815260200190815260200160002060000160008373ffffffffffffffffffffffffffffffffffffffff1673ffffffffffffffffffffffffffffffffffffffff16815260200190815260200160002060009054906101000a900460ff16905092915050565b600033905090565b6000604051905090565b600080fd5b600080fd5b600080fd5b600080fd5b6000601f19601f8301169050919050565b7f4e487b7100000000000000000000000000000000000000000000000000000000600052604160045260246000fd5b6200032482620002d9565b810181811067ffffffffffffffff82111715620003465762000345620002ea565b5b80604052505050565b60006200035b620002bb565b905062000369828262000319565b919050565b600067ffffffffffffffff8211156200038c576200038b620002ea565b5b6200039782620002d9565b9050602081019050919050565b60005b83811015620003c4578082015181840152602081019050620003a7565b60008484015250505050565b6000620003e7620003e1846200036e565b6200034f565b905082815260208101848484011115620004065762000405620002d4565b5b62000413848285620003a4565b509392505050565b600082601f830112620004335762000432620002cf565b5b815162000445848260208601620003d0565b91505092915050565b60008060408385031215620004685762000467620002c5565b5b600083015167ffffffffffffffff811115620004895762000488620002ca565b5b62000497858286016200041b565b925050602083015167ffffffffffffffff811115620004bb57620004ba620002ca565b5b620004c9858286016200041b565b9150509250929050565b600081519050919050565b7f4e487b7100000000000000000000000000000000000000000000000000000000600052602260045260246000fd5b600060028204905060018216806200052657607f821691505b6020821081036200053c576200053b620004de565b5b50919050565b60008190508160005260206000209050919050565b60006020601f8301049050919050565b600082821b905092915050565b600060088302620005a67fffffffffffffffffffffffffffffffffffffffffffffffffffffffffffffffff8262000567565b620005b2868362000567565b95508019841693508086168417925050509392505050565b6000819050919050565b6000819050919050565b6000620005ff620005f9620005f384620005ca565b620005d4565b620005ca565b9050919050565b6000819050919050565b6200061b83620005de565b620006336200062a8262000606565b84845462000574565b825550505050565b600090565b6200064a6200063b565b6200065781848462000610565b505050565b5b818110156200067f576200067360008262000640565b6001810190506200065d565b5050565b601f821115620006ce57620006988162000542565b620006a38462000557565b81016020851015620006b3578190505b620006cb620006c28562000557565b8301826200065c565b50505b505050565b600082821c905092915050565b6000620006f360001984600802620006d3565b1980831691505092915050565b60006200070e8383620006e0565b9150826002028217905092915050565b6200072982620004d3565b67ffffffffffffffff811115620007455762000744620002ea565b5b6200075182546200050d565b6200075e82828562000683565b600060209050601f83116001811462000796576000841562000781578287015190505b6200078d858262000700565b865550620007fd565b601f198416620007a68662000542565b60005b82811015620007d057848901518255600182019150602085019450602081019050620007a9565b86831015620007f05784890151620007ec601f891682620006e0565b8355505b6001600288020188555050505b505050505050565b6151d780620008156000396000f3fe608060405234801561001057600080fd5b50600436106102535760003560e01c80636352211e11610146578063a53bb990116100c3578063c5430a9d11610087578063c5430a9d146106f5578063c87b56dd14610726578063d539139314610756578063d547741f14610774578063e985e9c514610790578063fa695a97146107c057610253565b8063a53bb99014610651578063a55bb43b1461066d578063b3916fcf1461068b578063b88d4fde146106bb578063b97c9f77146106d757610253565b80638f2fc60b1161010a5780638f2fc60b146105ad57806391d14854146105c957806395d89b41146105f9578063a217fddf14610617578063a22cb4651461063557610253565b80636352211e146104f757806370a08231146105275780638456cb59146105575780638462151c14610561578063857529f11461059157610253565b80632f745c59116101d457806342842e0e1161019857806342842e0e14610455578063475970d3146104715780634f6ccce71461048d57806355f804b3146104bd5780635c975abb146104d957610253565b80632f745c59146103c557806336568abe146103f55780633bd70868146104115780633f4ba83a1461042f57806340c10f191461043957610253565b806318160ddd1161021b57806318160ddd1461030e57806323b872dd1461032c578063248a9ca3146103485780632a55205a146103785780632f2ff15d146103a957610253565b806301ffc9a71461025857806306fdde0314610288578063081812fc146102a6578063095ea7b3146102d657806312b3d807146102f2575b600080fd5b610272600480360381019061026d91906134d1565b6107dc565b60405161027f9190613519565b60405180910390f35b6102906107ee565b60405161029d91906135c4565b60405180910390f35b6102c060048036038101906102bb919061361c565b610880565b6040516102cd919061368a565b60405180910390f35b6102f060048036038101906102eb91906136d1565b6108c6565b005b61030c60048036038101906103079190613735565b6109dd565b005b610316610a0b565b6040516103239190613771565b60405180910390f35b6103466004803603810190610341919061378c565b610a18565b005b610362600480360381019061035d9190613815565b610a78565b60405161036f9190613851565b60405180910390f35b610392600480360381019061038d919061386c565b610a98565b6040516103a09291906138ac565b60405180910390f35b6103c360048036038101906103be91906138d5565b610c82565b005b6103df60048036038101906103da91906136d1565b610ca3565b6040516103ec9190613771565b60405180910390f35b61040f600480360381019061040a91906138d5565b610d48565b005b610419610dcb565b6040516104269190613851565b60405180910390f35b610437610def565b005b610453600480360381019061044e91906136d1565b610e07565b005b61046f600480360381019061046a919061378c565b610e33565b005b61048b6004803603810190610486919061361c565b610e53565b005b6104a760048036038101906104a2919061361c565b610f5d565b6040516104b49190613771565b60405180910390f35b6104d760048036038101906104d29190613a4a565b610fce565b005b6104e1610fe8565b6040516104ee9190613519565b60405180910390f35b610511600480360381019061050c919061361c565b610fff565b60405161051e919061368a565b60405180910390f35b610541600480360381019061053c9190613a93565b6110b0565b60405161054e9190613771565b60405180910390f35b61055f611167565b005b61057b60048036038101906105769190613a93565b61117f565b6040516105889190613b7e565b60405180910390f35b6105ab60048036038101906105a6919061361c565b611288565b005b6105c760048036038101906105c29190613be4565b61132b565b005b6105e360048036038101906105de91906138d5565b611347565b6040516105f09190613519565b60405180910390f35b6106016113b2565b60405161060e91906135c4565b60405180910390f35b61061f611444565b60405161062c9190613851565b60405180910390f35b61064f600480360381019061064a9190613c50565b61144b565b005b61066b60048036038101906106669190613c90565b611461565b005b61067561158b565b6040516106829190613771565b60405180910390f35b6106a560048036038101906106a0919061361c565b611591565b6040516106b29190613519565b60405180910390f35b6106d560048036038101906106d09190613d84565b6115c1565b005b6106df611623565b6040516106ec9190613851565b60405180910390f35b61070f600480360381019061070a919061361c565b611647565b60405161071d9291906138ac565b60405180910390f35b610740600480360381019061073b919061361c565b6116e9565b60405161074d91906135c4565b60405180910390f35b61075e611751565b60405161076b9190613851565b60405180910390f35b61078e600480360381019061078991906138d5565b611775565b005b6107aa60048036038101906107a59190613e07565b611796565b6040516107b79190613519565b60405180910390f35b6107da60048036038101906107d59190613a93565b61182a565b005b60006107e782611861565b9050919050565b6060600280546107fd90613e76565b80601f016020809104026020016040519081016040528092919081815260200182805461082990613e76565b80156108765780601f1061084b57610100808354040283529160200191610876565b820191906000526020600020905b81548152906001019060200180831161085957829003601f168201915b5050505050905090565b600061088b826118db565b6006600083815260200190815260200160002060009054906101000a900473ffffffffffffffffffffffffffffffffffffffff169050919050565b60006108d182610fff565b90508073ffffffffffffffffffffffffffffffffffffffff168373ffffffffffffffffffffffffffffffffffffffff1603610941576040517f08c379a000000000000000000000000000000000000000000000000000000000815260040161093890613f19565b60405180910390fd5b8073ffffffffffffffffffffffffffffffffffffffff16610960611926565b73ffffffffffffffffffffffffffffffffffffffff16148061098f575061098e81610989611926565b611796565b5b6109ce576040517f08c379a00000000000000000000000000000000000000000000000000000000081526004016109c590613fab565b60405180910390fd5b6109d8838361192e565b505050565b7fb379d9535b5ae7800ada8f473bd7d55f753e8023b1ed709eab5f121d2b9807be610a07816119e7565b5050565b6000600a80549050905090565b610a29610a23611926565b826119fb565b610a68576040517f08c379a0000000000000000000000000000000000000000000000000000000008152600401610a5f9061403d565b60405180910390fd5b610a73838383611a90565b505050565b6000600d6000838152602001908152602001600020600101549050919050565b6000806000600160008681526020019081526020016000206040518060400160405290816000820160009054906101000a900473ffffffffffffffffffffffffffffffffffffffff1673ffffffffffffffffffffffffffffffffffffffff1673ffffffffffffffffffffffffffffffffffffffff1681526020016000820160149054906101000a90046bffffffffffffffffffffffff166bffffffffffffffffffffffff166bffffffffffffffffffffffff16815250509050600073ffffffffffffffffffffffffffffffffffffffff16816000015173ffffffffffffffffffffffffffffffffffffffff1603610c2d5760006040518060400160405290816000820160009054906101000a900473ffffffffffffffffffffffffffffffffffffffff1673ffffffffffffffffffffffffffffffffffffffff1673ffffffffffffffffffffffffffffffffffffffff1681526020016000820160149054906101000a90046bffffffffffffffffffffffff166bffffffffffffffffffffffff166bffffffffffffffffffffffff168152505090505b6000610c37611aa0565b6bffffffffffffffffffffffff1682602001516bffffffffffffffffffffffff1686610c63919061408c565b610c6d91906140fd565b90508160000151819350935050509250929050565b610c8b82610a78565b610c94816119e7565b610c9e8383611aaa565b505050565b6000610cae836110b0565b8210610cef576040517f08c379a0000000000000000000000000000000000000000000000000000000008152600401610ce6906141a0565b60405180910390fd5b600860008473ffffffffffffffffffffffffffffffffffffffff1673ffffffffffffffffffffffffffffffffffffffff168152602001908152602001600020600083815260200190815260200160002054905092915050565b610d50611926565b73ffffffffffffffffffffffffffffffffffffffff168173ffffffffffffffffffffffffffffffffffffffff1614610dbd576040517f08c379a0000000000000000000000000000000000000000000000000000000008152600401610db490614232565b60405180910390fd5b610dc78282611b8b565b5050565b7fb379d9535b5ae7800ada8f473bd7d55f753e8023b1ed709eab5f121d2b9807be81565b6000801b610dfc816119e7565b610e04611c6d565b50565b60005b81811015610e2e57610e1b8361182a565b8080610e2690614252565b915050610e0a565b505050565b610e4e838383604051806020016040528060008152506115c1565b505050565b60006011600083815260200190815260200160002060000190508060000160009054906101000a900460ff16610ebe576040517f08c379a0000000000000000000000000000000000000000000000000000000008152600401610eb5906142e6565b60405180910390fd5b8060010154421015610f05576040517f08c379a0000000000000000000000000000000000000000000000000000000008152600401610efc90614352565b60405180910390fd5b60008160000160006101000a81548160ff021916908315150217905550610f59610f2e83610fff565b8260000160019054906101000a900473ffffffffffffffffffffffffffffffffffffffff1684611a90565b5050565b6000610f67610a0b565b8210610fa8576040517f08c379a0000000000000000000000000000000000000000000000000000000008152600401610f9f906143e4565b60405180910390fd5b600a8281548110610fbc57610fbb614404565b5b90600052602060002001549050919050565b6000801b610fdb816119e7565b610fe482611cd0565b5050565b6000600c60009054906101000a900460ff16905090565b6000806004600084815260200190815260200160002060009054906101000a900473ffffffffffffffffffffffffffffffffffffffff169050600073ffffffffffffffffffffffffffffffffffffffff168173ffffffffffffffffffffffffffffffffffffffff16036110a7576040517f08c379a000000000000000000000000000000000000000000000000000000000815260040161109e9061447f565b60405180910390fd5b80915050919050565b60008073ffffffffffffffffffffffffffffffffffffffff168273ffffffffffffffffffffffffffffffffffffffff1603611120576040517f08c379a000000000000000000000000000000000000000000000000000000000815260040161111790614511565b60405180910390fd5b600560008373ffffffffffffffffffffffffffffffffffffffff1673ffffffffffffffffffffffffffffffffffffffff168152602001908152602001600020549050919050565b6000801b611174816119e7565b61117c611ce3565b50565b6060600061118c836110b0565b9050600081036111e857600067ffffffffffffffff8111156111b1576111b061391f565b5b6040519080825280602002602001820160405280156111df5781602001602082028036833780820191505090505b50915050611283565b60008167ffffffffffffffff8111156112045761120361391f565b5b6040519080825280602002602001820160405280156112325781602001602082028036833780820191505090505b50905060005b8281101561127c5761124a8582610ca3565b82828151811061125d5761125c614404565b5b602002602001018181525050808061127490614252565b915050611238565b8193505050505b919050565b7f3b652633b3026fa70803ad50b58b0ae884cefe3497643f62c67c466f41a6e88d6112b2816119e7565b60006011600084815260200190815260200160002060000190508060000160009054906101000a900460ff1661131d576040517f08c379a00000000000000000000000000000000000000000000000000000000081526004016113149061457d565b60405180910390fd5b428160010181905550505050565b6000801b611338816119e7565b6113428383611d46565b505050565b6000600d600084815260200190815260200160002060000160008373ffffffffffffffffffffffffffffffffffffffff1673ffffffffffffffffffffffffffffffffffffffff16815260200190815260200160002060009054906101000a900460ff16905092915050565b6060600380546113c190613e76565b80601f01602080910402602001604051908101604052809291908181526020018280546113ed90613e76565b801561143a5780601f1061140f5761010080835404028352916020019161143a565b820191906000526020600020905b81548152906001019060200180831161141d57829003601f168201915b5050505050905090565b6000801b81565b61145d611456611926565b8383611eda565b5050565b7f3b652633b3026fa70803ad50b58b0ae884cefe3497643f62c67c466f41a6e88d61148b816119e7565b60006011600086815260200190815260200160002060000190508060000160009054906101000a900460ff16156114f7576040517f08c379a00000000000000000000000000000000000000000000000000000000081526004016114ee906145e9565b60405180910390fd5b600061150286610fff565b9050808260000160016101000a81548173ffffffffffffffffffffffffffffffffffffffff021916908373ffffffffffffffffffffffffffffffffffffffff16021790555083426115539190614609565b8260010181905550611566818688611a90565b60018260000160006101000a81548160ff021916908315150217905550505050505050565b61271081565b60006011600083815260200190815260200160002060000160000160009054906101000a900460ff169050919050565b6115d26115cc611926565b836119fb565b611611576040517f08c379a00000000000000000000000000000000000000000000000000000000081526004016116089061403d565b60405180910390fd5b61161d84848484612046565b50505050565b7f3b652633b3026fa70803ad50b58b0ae884cefe3497643f62c67c466f41a6e88d81565b60008060006011600085815260200190815260200160002060000190508060000160009054906101000a900460ff166116b5576040517f08c379a00000000000000000000000000000000000000000000000000000000081526004016116ac90614689565b60405180910390fd5b8060000160019054906101000a900473ffffffffffffffffffffffffffffffffffffffff1681600101549250925050915091565b60606116f4826118db565b60006116fe6120a2565b9050600081511161171e5760405180602001604052806000815250611749565b8061172884612134565b6040516020016117399291906146e5565b6040516020818303038152906040525b915050919050565b7f9f2df0fed2c77648de5860a4cc508cd0818c85b8b8a1ab4ceeef8d981c8956a681565b61177e82610a78565b611787816119e7565b6117918383611b8b565b505050565b6000600760008473ffffffffffffffffffffffffffffffffffffffff1673ffffffffffffffffffffffffffffffffffffffff16815260200190815260200160002060008373ffffffffffffffffffffffffffffffffffffffff1673ffffffffffffffffffffffffffffffffffffffff16815260200190815260200160002060009054906101000a900460ff16905092915050565b7f9f2df0fed2c77648de5860a4cc508cd0818c85b8b8a1ab4ceeef8d981c8956a6611854816119e7565b61185d82612294565b5050565b60007f7965db0b000000000000000000000000000000000000000000000000000000007bffffffffffffffffffffffffffffffffffffffffffffffffffffffff1916827bffffffffffffffffffffffffffffffffffffffffffffffffffffffff191614806118d457506118d3826122ba565b5b9050919050565b6118e4816122cc565b611923576040517f08c379a000000000000000000000000000000000000000000000000000000000815260040161191a9061447f565b60405180910390fd5b50565b600033905090565b816006600083815260200190815260200160002060006101000a81548173ffffffffffffffffffffffffffffffffffffffff021916908373ffffffffffffffffffffffffffffffffffffffff160217905550808273ffffffffffffffffffffffffffffffffffffffff166119a183610fff565b73ffffffffffffffffffffffffffffffffffffffff167f8c5be1e5ebec7d5bd14f71427d1e84f3dd0314c0f7b2291e5b200ac8c7c3b92560405160405180910390a45050565b6119f8816119f3611926565b612338565b50565b600080611a0783610fff565b90508073ffffffffffffffffffffffffffffffffffffffff168473ffffffffffffffffffffffffffffffffffffffff161480611a495750611a488185611796565b5b80611a8757508373ffffffffffffffffffffffffffffffffffffffff16611a6f84610880565b73ffffffffffffffffffffffffffffffffffffffff16145b91505092915050565b611a9b8383836123d5565b505050565b6000612710905090565b611ab48282611347565b611b87576001600d600084815260200190815260200160002060000160008373ffffffffffffffffffffffffffffffffffffffff1673ffffffffffffffffffffffffffffffffffffffff16815260200190815260200160002060006101000a81548160ff021916908315150217905550611b2c611926565b73ffffffffffffffffffffffffffffffffffffffff168173ffffffffffffffffffffffffffffffffffffffff16837f2f8788117e7eff1d82e926ec794901d17c78024a50270940304540a733656f0d60405160405180910390a45b5050565b611b958282611347565b15611c69576000600d600084815260200190815260200160002060000160008373ffffffffffffffffffffffffffffffffffffffff1673ffffffffffffffffffffffffffffffffffffffff16815260200190815260200160002060006101000a81548160ff021916908315150217905550611c0e611926565b73ffffffffffffffffffffffffffffffffffffffff168173ffffffffffffffffffffffffffffffffffffffff16837ff6391f5c32d9c69d2a47ea670b442974b53935d1edc7fd64eb21e047a839171b60405160405180910390a45b5050565b611c7561263b565b6000600c60006101000a81548160ff0219169083151502179055507f5db9ee0a495bf2e6ff9c91a7834c1ba4fdd244a5e8aa4e537bd38aeae4b073aa611cb9611926565b604051611cc6919061368a565b60405180910390a1565b80600f9081611cdf91906148b5565b5050565b611ceb612684565b6001600c60006101000a81548160ff0219169083151502179055507f62e78cea01bee320cd4e420270b5ea74000d11b0c9f74754ebdbfc544b05a258611d2f611926565b604051611d3c919061368a565b60405180910390a1565b611d4e611aa0565b6bffffffffffffffffffffffff16816bffffffffffffffffffffffff161115611dac576040517f08c379a0000000000000000000000000000000000000000000000000000000008152600401611da3906149f9565b60405180910390fd5b600073ffffffffffffffffffffffffffffffffffffffff168273ffffffffffffffffffffffffffffffffffffffff1603611e1b576040517f08c379a0000000000000000000000000000000000000000000000000000000008152600401611e1290614a65565b60405180910390fd5b60405180604001604052808373ffffffffffffffffffffffffffffffffffffffff168152602001826bffffffffffffffffffffffff168152506000808201518160000160006101000a81548173ffffffffffffffffffffffffffffffffffffffff021916908373ffffffffffffffffffffffffffffffffffffffff16021790555060208201518160000160146101000a8154816bffffffffffffffffffffffff02191690836bffffffffffffffffffffffff1602179055509050505050565b8173ffffffffffffffffffffffffffffffffffffffff168373ffffffffffffffffffffffffffffffffffffffff1603611f48576040517f08c379a0000000000000000000000000000000000000000000000000000000008152600401611f3f90614ad1565b60405180910390fd5b80600760008573ffffffffffffffffffffffffffffffffffffffff1673ffffffffffffffffffffffffffffffffffffffff16815260200190815260200160002060008473ffffffffffffffffffffffffffffffffffffffff1673ffffffffffffffffffffffffffffffffffffffff16815260200190815260200160002060006101000a81548160ff0219169083151502179055508173ffffffffffffffffffffffffffffffffffffffff168373ffffffffffffffffffffffffffffffffffffffff167f17307eab39ab6107e8899845ad3d59bd9653f200f220920489ca2b5937696c31836040516120399190613519565b60405180910390a3505050565b612051848484611a90565b61205d848484846126ce565b61209c576040517f08c379a000000000000000000000000000000000000000000000000000000000815260040161209390614b63565b60405180910390fd5b50505050565b6060600f80546120b190613e76565b80601f01602080910402602001604051908101604052809291908181526020018280546120dd90613e76565b801561212a5780601f106120ff5761010080835404028352916020019161212a565b820191906000526020600020905b81548152906001019060200180831161210d57829003601f168201915b5050505050905090565b60606000820361217b576040518060400160405280600181526020017f3000000000000000000000000000000000000000000000000000000000000000815250905061228f565b600082905060005b600082146121ad57808061219690614252565b915050600a826121a691906140fd565b9150612183565b60008167ffffffffffffffff8111156121c9576121c861391f565b5b6040519080825280601f01601f1916602001820160405280156121fb5781602001600182028036833780820191505090505b5090505b60008514612288576001826122149190614b83565b9150600a856122239190614bb7565b603061222f9190614609565b60f81b81838151811061224557612244614404565b5b60200101907effffffffffffffffffffffffffffffffffffffffffffffffffffffffffffff1916908160001a905350600a8561228191906140fd565b94506121ff565b8093505050505b919050565b60006122a0600e612855565b90506122ac600e612863565b6122b68282612879565b5050565b60006122c582612897565b9050919050565b60008073ffffffffffffffffffffffffffffffffffffffff166004600084815260200190815260200160002060009054906101000a900473ffffffffffffffffffffffffffffffffffffffff1673ffffffffffffffffffffffffffffffffffffffff1614159050919050565b6123428282611347565b6123d1576123678173ffffffffffffffffffffffffffffffffffffffff166014612911565b6123758360001c6020612911565b604051602001612386929190614c80565b6040516020818303038152906040526040517f08c379a00000000000000000000000000000000000000000000000000000000081526004016123c891906135c4565b60405180910390fd5b5050565b8273ffffffffffffffffffffffffffffffffffffffff166123f582610fff565b73ffffffffffffffffffffffffffffffffffffffff161461244b576040517f08c379a000000000000000000000000000000000000000000000000000000000815260040161244290614d2c565b60405180910390fd5b600073ffffffffffffffffffffffffffffffffffffffff168273ffffffffffffffffffffffffffffffffffffffff16036124ba576040517f08c379a00000000000000000000000000000000000000000000000000000000081526004016124b190614dbe565b60405180910390fd5b6124c5838383612b4d565b6124d060008261192e565b6001600560008573ffffffffffffffffffffffffffffffffffffffff1673ffffffffffffffffffffffffffffffffffffffff16815260200190815260200160002060008282546125209190614b83565b925050819055506001600560008473ffffffffffffffffffffffffffffffffffffffff1673ffffffffffffffffffffffffffffffffffffffff16815260200190815260200160002060008282546125779190614609565b92505081905550816004600083815260200190815260200160002060006101000a81548173ffffffffffffffffffffffffffffffffffffffff021916908373ffffffffffffffffffffffffffffffffffffffff160217905550808273ffffffffffffffffffffffffffffffffffffffff168473ffffffffffffffffffffffffffffffffffffffff167fddf252ad1be2c89b69c2b068fc378daa952ba7f163c4a11628f55a4df523b3ef60405160405180910390a4612636838383612bcc565b505050565b612643610fe8565b612682576040517f08c379a000000000000000000000000000000000000000000000000000000000815260040161267990614e2a565b60405180910390fd5b565b61268c610fe8565b156126cc576040517f08c379a00000000000000000000000000000000000000000000000000000000081526004016126c390614e96565b60405180910390fd5b565b60006126ef8473ffffffffffffffffffffffffffffffffffffffff16612bd1565b15612848578373ffffffffffffffffffffffffffffffffffffffff1663150b7a02612718611926565b8786866040518563ffffffff1660e01b815260040161273a9493929190614f0b565b6020604051808303816000875af192505050801561277657506040513d601f19601f820116820180604052508101906127739190614f6c565b60015b6127f8573d80600081146127a6576040519150601f19603f3d011682016040523d82523d6000602084013e6127ab565b606091505b5060008151036127f0576040517f08c379a00000000000000000000000000000000000000000000000000000000081526004016127e790614b63565b60405180910390fd5b805181602001fd5b63150b7a0260e01b7bffffffffffffffffffffffffffffffffffffffffffffffffffffffff1916817bffffffffffffffffffffffffffffffffffffffffffffffffffffffff19161491505061284d565b600190505b949350505050565b600081600001549050919050565b6001816000016000828254019250508190555050565b612893828260405180602001604052806000815250612bf4565b5050565b60007f780e9d63000000000000000000000000000000000000000000000000000000007bffffffffffffffffffffffffffffffffffffffffffffffffffffffff1916827bffffffffffffffffffffffffffffffffffffffffffffffffffffffff1916148061290a575061290982612c4f565b5b9050919050565b606060006002836002612924919061408c565b61292e9190614609565b67ffffffffffffffff8111156129475761294661391f565b5b6040519080825280601f01601f1916602001820160405280156129795781602001600182028036833780820191505090505b5090507f3000000000000000000000000000000000000000000000000000000000000000816000815181106129b1576129b0614404565b5b60200101907effffffffffffffffffffffffffffffffffffffffffffffffffffffffffffff1916908160001a9053507f780000000000000000000000000000000000000000000000000000000000000081600181518110612a1557612a14614404565b5b60200101907effffffffffffffffffffffffffffffffffffffffffffffffffffffffffffff1916908160001a90535060006001846002612a55919061408c565b612a5f9190614609565b90505b6001811115612aff577f3031323334353637383961626364656600000000000000000000000000000000600f861660108110612aa157612aa0614404565b5b1a60f81b828281518110612ab857612ab7614404565b5b60200101907effffffffffffffffffffffffffffffffffffffffffffffffffffffffffffff1916908160001a905350600485901c945080612af890614f99565b9050612a62565b5060008414612b43576040517f08c379a0000000000000000000000000000000000000000000000000000000008152600401612b3a9061500e565b60405180910390fd5b8091505092915050565b612b55612684565b6011600082815260200190815260200160002060000160000160009054906101000a900460ff1615612bbc576040517f08c379a0000000000000000000000000000000000000000000000000000000008152600401612bb3906145e9565b60405180910390fd5b612bc7838383612d31565b505050565b505050565b6000808273ffffffffffffffffffffffffffffffffffffffff163b119050919050565b612bfe8383612e43565b612c0b60008484846126ce565b612c4a576040517f08c379a0000000000000000000000000000000000000000000000000000000008152600401612c4190614b63565b60405180910390fd5b505050565b60007f80ac58cd000000000000000000000000000000000000000000000000000000007bffffffffffffffffffffffffffffffffffffffffffffffffffffffff1916827bffffffffffffffffffffffffffffffffffffffffffffffffffffffff19161480612d1a57507f5b5e139f000000000000000000000000000000000000000000000000000000007bffffffffffffffffffffffffffffffffffffffffffffffffffffffff1916827bffffffffffffffffffffffffffffffffffffffffffffffffffffffff1916145b80612d2a5750612d2982612e9d565b5b9050919050565b612d3c838383612f17565b600073ffffffffffffffffffffffffffffffffffffffff168373ffffffffffffffffffffffffffffffffffffffff1603612d7e57612d7981612f1c565b612dbd565b8173ffffffffffffffffffffffffffffffffffffffff168373ffffffffffffffffffffffffffffffffffffffff1614612dbc57612dbb8382612f65565b5b5b600073ffffffffffffffffffffffffffffffffffffffff168273ffffffffffffffffffffffffffffffffffffffff1603612dff57612dfa816130d2565b612e3e565b8273ffffffffffffffffffffffffffffffffffffffff168273ffffffffffffffffffffffffffffffffffffffff1614612e3d57612e3c82826131a3565b5b5b505050565b612e4d8282613222565b612710612e58610a0b565b1115612e99576040517f08c379a0000000000000000000000000000000000000000000000000000000008152600401612e909061507a565b60405180910390fd5b5050565b60007f2a55205a000000000000000000000000000000000000000000000000000000007bffffffffffffffffffffffffffffffffffffffffffffffffffffffff1916827bffffffffffffffffffffffffffffffffffffffffffffffffffffffff19161480612f105750612f0f826133fb565b5b9050919050565b505050565b600a80549050600b600083815260200190815260200160002081905550600a81908060018154018082558091505060019003906000526020600020016000909190919091505550565b60006001612f72846110b0565b612f7c9190614b83565b9050600060096000848152602001908152602001600020549050818114613061576000600860008673ffffffffffffffffffffffffffffffffffffffff1673ffffffffffffffffffffffffffffffffffffffff168152602001908152602001600020600084815260200190815260200160002054905080600860008773ffffffffffffffffffffffffffffffffffffffff1673ffffffffffffffffffffffffffffffffffffffff168152602001908152602001600020600084815260200190815260200160002081905550816009600083815260200190815260200160002081905550505b6009600084815260200190815260200160002060009055600860008573ffffffffffffffffffffffffffffffffffffffff1673ffffffffffffffffffffffffffffffffffffffff16815260200190815260200160002060008381526020019081526020016000206000905550505050565b60006001600a805490506130e69190614b83565b90506000600b60008481526020019081526020016000205490506000600a838154811061311657613115614404565b5b9060005260206000200154905080600a838154811061313857613137614404565b5b906000526020600020018190555081600b600083815260200190815260200160002081905550600b600085815260200190815260200160002060009055600a8054806131875761318661509a565b5b6001900381819060005260206000200160009055905550505050565b60006131ae836110b0565b905081600860008573ffffffffffffffffffffffffffffffffffffffff1673ffffffffffffffffffffffffffffffffffffffff168152602001908152602001600020600083815260200190815260200160002081905550806009600084815260200190815260200160002081905550505050565b600073ffffffffffffffffffffffffffffffffffffffff168273ffffffffffffffffffffffffffffffffffffffff1603613291576040517f08c379a000000000000000000000000000000000000000000000000000000000815260040161328890615115565b60405180910390fd5b61329a816122cc565b156132da576040517f08c379a00000000000000000000000000000000000000000000000000000000081526004016132d190615181565b60405180910390fd5b6132e660008383612b4d565b6001600560008473ffffffffffffffffffffffffffffffffffffffff1673ffffffffffffffffffffffffffffffffffffffff16815260200190815260200160002060008282546133369190614609565b92505081905550816004600083815260200190815260200160002060006101000a81548173ffffffffffffffffffffffffffffffffffffffff021916908373ffffffffffffffffffffffffffffffffffffffff160217905550808273ffffffffffffffffffffffffffffffffffffffff16600073ffffffffffffffffffffffffffffffffffffffff167fddf252ad1be2c89b69c2b068fc378daa952ba7f163c4a11628f55a4df523b3ef60405160405180910390a46133f760008383612bcc565b5050565b60007f01ffc9a7000000000000000000000000000000000000000000000000000000007bffffffffffffffffffffffffffffffffffffffffffffffffffffffff1916827bffffffffffffffffffffffffffffffffffffffffffffffffffffffff1916149050919050565b6000604051905090565b600080fd5b600080fd5b60007fffffffff0000000000000000000000000000000000000000000000000000000082169050919050565b6134ae81613479565b81146134b957600080fd5b50565b6000813590506134cb816134a5565b92915050565b6000602082840312156134e7576134e661346f565b5b60006134f5848285016134bc565b91505092915050565b60008115159050919050565b613513816134fe565b82525050565b600060208201905061352e600083018461350a565b92915050565b600081519050919050565b600082825260208201905092915050565b60005b8381101561356e578082015181840152602081019050613553565b60008484015250505050565b6000601f19601f8301169050919050565b600061359682613534565b6135a0818561353f565b93506135b0818560208601613550565b6135b98161357a565b840191505092915050565b600060208201905081810360008301526135de818461358b565b905092915050565b6000819050919050565b6135f9816135e6565b811461360457600080fd5b50565b600081359050613616816135f0565b92915050565b6000602082840312156136325761363161346f565b5b600061364084828501613607565b91505092915050565b600073ffffffffffffffffffffffffffffffffffffffff82169050919050565b600061367482613649565b9050919050565b61368481613669565b82525050565b600060208201905061369f600083018461367b565b92915050565b6136ae81613669565b81146136b957600080fd5b50565b6000813590506136cb816136a5565b92915050565b600080604083850312156136e8576136e761346f565b5b60006136f6858286016136bc565b925050602061370785828601613607565b9150509250929050565b600080fd5b60006040828403121561372c5761372b613711565b5b81905092915050565b60006040828403121561374b5761374a61346f565b5b600061375984828501613716565b91505092915050565b61376b816135e6565b82525050565b60006020820190506137866000830184613762565b92915050565b6000806000606084860312156137a5576137a461346f565b5b60006137b3868287016136bc565b93505060206137c4868287016136bc565b92505060406137d586828701613607565b9150509250925092565b6000819050919050565b6137f2816137df565b81146137fd57600080fd5b50565b60008135905061380f816137e9565b92915050565b60006020828403121561382b5761382a61346f565b5b600061383984828501613800565b91505092915050565b61384b816137df565b82525050565b60006020820190506138666000830184613842565b92915050565b600080604083850312156138835761388261346f565b5b600061389185828601613607565b92505060206138a285828601613607565b9150509250929050565b60006040820190506138c1600083018561367b565b6138ce6020830184613762565b9392505050565b600080604083850312156138ec576138eb61346f565b5b60006138fa85828601613800565b925050602061390b858286016136bc565b9150509250929050565b600080fd5b600080fd5b7f4e487b7100000000000000000000000000000000000000000000000000000000600052604160045260246000fd5b6139578261357a565b810181811067ffffffffffffffff821117156139765761397561391f565b5b80604052505050565b6000613989613465565b9050613995828261394e565b919050565b600067ffffffffffffffff8211156139b5576139b461391f565b5b6139be8261357a565b9050602081019050919050565b82818337600083830152505050565b60006139ed6139e88461399a565b61397f565b905082815260208101848484011115613a0957613a0861391a565b5b613a148482856139cb565b509392505050565b600082601f830112613a3157613a30613915565b5b8135613a418482602086016139da565b91505092915050565b600060208284031215613a6057613a5f61346f565b5b600082013567ffffffffffffffff811115613a7e57613a7d613474565b5b613a8a84828501613a1c565b91505092915050565b600060208284031215613aa957613aa861346f565b5b6000613ab7848285016136bc565b91505092915050565b600081519050919050565b600082825260208201905092915050565b6000819050602082019050919050565b613af5816135e6565b82525050565b6000613b078383613aec565b60208301905092915050565b6000602082019050919050565b6000613b2b82613ac0565b613b358185613acb565b9350613b4083613adc565b8060005b83811015613b71578151613b588882613afb565b9750613b6383613b13565b925050600181019050613b44565b5085935050505092915050565b60006020820190508181036000830152613b988184613b20565b905092915050565b60006bffffffffffffffffffffffff82169050919050565b613bc181613ba0565b8114613bcc57600080fd5b50565b600081359050613bde81613bb8565b92915050565b60008060408385031215613bfb57613bfa61346f565b5b6000613c09858286016136bc565b9250506020613c1a85828601613bcf565b9150509250929050565b613c2d816134fe565b8114613c3857600080fd5b50565b600081359050613c4a81613c24565b92915050565b60008060408385031215613c6757613c6661346f565b5b6000613c75858286016136bc565b9250506020613c8685828601613c3b565b9150509250929050565b600080600060608486031215613ca957613ca861346f565b5b6000613cb786828701613607565b9350506020613cc8868287016136bc565b9250506040613cd986828701613607565b9150509250925092565b600067ffffffffffffffff821115613cfe57613cfd61391f565b5b613d078261357a565b9050602081019050919050565b6000613d27613d2284613ce3565b61397f565b905082815260208101848484011115613d4357613d4261391a565b5b613d4e8482856139cb565b509392505050565b600082601f830112613d6b57613d6a613915565b5b8135613d7b848260208601613d14565b91505092915050565b60008060008060808587031215613d9e57613d9d61346f565b5b6000613dac878288016136bc565b9450506020613dbd878288016136bc565b9350506040613dce87828801613607565b925050606085013567ffffffffffffffff811115613def57613dee613474565b5b613dfb87828801613d56565b91505092959194509250565b60008060408385031215613e1e57613e1d61346f565b5b6000613e2c858286016136bc565b9250506020613e3d858286016136bc565b9150509250929050565b7f4e487b7100000000000000000000000000000000000000000000000000000000600052602260045260246000fd5b60006002820490506001821680613e8e57607f821691505b602082108103613ea157613ea0613e47565b5b50919050565b7f4552433732313a20617070726f76616c20746f2063757272656e74206f776e6560008201527f7200000000000000000000000000000000000000000000000000000000000000602082015250565b6000613f0360218361353f565b9150613f0e82613ea7565b604082019050919050565b60006020820190508181036000830152613f3281613ef6565b9050919050565b7f4552433732313a20617070726f76652063616c6c6572206973206e6f7420746f60008201527f6b656e206f776e6572206e6f7220617070726f76656420666f7220616c6c0000602082015250565b6000613f95603e8361353f565b9150613fa082613f39565b604082019050919050565b60006020820190508181036000830152613fc481613f88565b9050919050565b7f4552433732313a2063616c6c6572206973206e6f7420746f6b656e206f776e6560008201527f72206e6f7220617070726f766564000000000000000000000000000000000000602082015250565b6000614027602e8361353f565b915061403282613fcb565b604082019050919050565b600060208201905081810360008301526140568161401a565b9050919050565b7f4e487b7100000000000000000000000000000000000000000000000000000000600052601160045260246000fd5b6000614097826135e6565b91506140a2836135e6565b92508282026140b0816135e6565b915082820484148315176140c7576140c661405d565b5b5092915050565b7f4e487b7100000000000000000000000000000000000000000000000000000000600052601260045260246000fd5b6000614108826135e6565b9150614113836135e6565b925082614123576141226140ce565b5b828204905092915050565b7f455243373231456e756d657261626c653a206f776e657220696e646578206f7560008201527f74206f6620626f756e6473000000000000000000000000000000000000000000602082015250565b600061418a602b8361353f565b91506141958261412e565b604082019050919050565b600060208201905081810360008301526141b98161417d565b9050919050565b7f416363657373436f6e74726f6c3a2063616e206f6e6c792072656e6f756e636560008201527f20726f6c657320666f722073656c660000000000000000000000000000000000602082015250565b600061421c602f8361353f565b9150614227826141c0565b604082019050919050565b6000602082019050818103600083015261424b8161420f565b9050919050565b600061425d826135e6565b91507fffffffffffffffffffffffffffffffffffffffffffffffffffffffffffffffff820361428f5761428e61405d565b5b600182019050919050565b7f52656e74206e6f7420696e2070726f67726573732e0000000000000000000000600082015250565b60006142d060158361353f565b91506142db8261429a565b602082019050919050565b600060208201905081810360008301526142ff816142c3565b9050919050565b7f52656e7420706572696f64206e6f74206f7665722e0000000000000000000000600082015250565b600061433c60158361353f565b915061434782614306565b602082019050919050565b6000602082019050818103600083015261436b8161432f565b9050919050565b7f455243373231456e756d657261626c653a20676c6f62616c20696e646578206f60008201527f7574206f6620626f756e64730000000000000000000000000000000000000000602082015250565b60006143ce602c8361353f565b91506143d982614372565b604082019050919050565b600060208201905081810360008301526143fd816143c1565b9050919050565b7f4e487b7100000000000000000000000000000000000000000000000000000000600052603260045260246000fd5b7f4552433732313a20696e76616c696420746f6b656e2049440000000000000000600082015250565b600061446960188361353f565b915061447482614433565b602082019050919050565b600060208201905081810360008301526144988161445c565b9050919050565b7f4552433732313a2061646472657373207a65726f206973206e6f74206120766160008201527f6c6964206f776e65720000000000000000000000000000000000000000000000602082015250565b60006144fb60298361353f565b91506145068261449f565b604082019050919050565b6000602082019050818103600083015261452a816144ee565b9050919050565b7f4e6f7420756e6465722072656e742e0000000000000000000000000000000000600082015250565b6000614567600f8361353f565b915061457282614531565b602082019050919050565b600060208201905081810360008301526145968161455a565b9050919050565b7f43757272656e746c792072656e7465642e000000000000000000000000000000600082015250565b60006145d360118361353f565b91506145de8261459d565b602082019050919050565b60006020820190508181036000830152614602816145c6565b9050919050565b6000614614826135e6565b915061461f836135e6565b92508282019050808211156146375761463661405d565b5b92915050565b7f4e6f742072656e7465642063757272656e746c792e0000000000000000000000600082015250565b600061467360158361353f565b915061467e8261463d565b602082019050919050565b600060208201905081810360008301526146a281614666565b9050919050565b600081905092915050565b60006146bf82613534565b6146c981856146a9565b93506146d9818560208601613550565b80840191505092915050565b60006146f182856146b4565b91506146fd82846146b4565b91508190509392505050565b60008190508160005260206000209050919050565b60006020601f8301049050919050565b600082821b905092915050565b60006008830261476b7fffffffffffffffffffffffffffffffffffffffffffffffffffffffffffffffff8261472e565b614775868361472e565b95508019841693508086168417925050509392505050565b6000819050919050565b60006147b26147ad6147a8846135e6565b61478d565b6135e6565b9050919050565b6000819050919050565b6147cc83614797565b6147e06147d8826147b9565b84845461473b565b825550505050565b600090565b6147f56147e8565b6148008184846147c3565b505050565b5b81811015614824576148196000826147ed565b600181019050614806565b5050565b601f8211156148695761483a81614709565b6148438461471e565b81016020851015614852578190505b61486661485e8561471e565b830182614805565b50505b505050565b600082821c905092915050565b600061488c6000198460080261486e565b1980831691505092915050565b60006148a5838361487b565b9150826002028217905092915050565b6148be82613534565b67ffffffffffffffff8111156148d7576148d661391f565b5b6148e18254613e76565b6148ec828285614828565b600060209050601f83116001811461491f576000841561490d578287015190505b6149178582614899565b86555061497f565b601f19841661492d86614709565b60005b8281101561495557848901518255600182019150602085019450602081019050614930565b86831015614972578489015161496e601f89168261487b565b8355505b6001600288020188555050505b505050505050565b7f455243323938313a20726f79616c7479206665652077696c6c2065786365656460008201527f2073616c65507269636500000000000000000000000000000000000000000000602082015250565b60006149e3602a8361353f565b91506149ee82614987565b604082019050919050565b60006020820190508181036000830152614a12816149d6565b9050919050565b7f455243323938313a20696e76616c696420726563656976657200000000000000600082015250565b6000614a4f60198361353f565b9150614a5a82614a19565b602082019050919050565b60006020820190508181036000830152614a7e81614a42565b9050919050565b7f4552433732313a20617070726f766520746f2063616c6c657200000000000000600082015250565b6000614abb60198361353f565b9150614ac682614a85565b602082019050919050565b60006020820190508181036000830152614aea81614aae565b9050919050565b7f4552433732313a207472616e7366657220746f206e6f6e20455243373231526560008201527f63656976657220696d706c656d656e7465720000000000000000000000000000602082015250565b6000614b4d60328361353f565b9150614b5882614af1565b604082019050919050565b60006020820190508181036000830152614b7c81614b40565b9050919050565b6000614b8e826135e6565b9150614b99836135e6565b9250828203905081811115614bb157614bb061405d565b5b92915050565b6000614bc2826135e6565b9150614bcd836135e6565b925082614bdd57614bdc6140ce565b5b828206905092915050565b7f416363657373436f6e74726f6c3a206163636f756e7420000000000000000000600082015250565b6000614c1e6017836146a9565b9150614c2982614be8565b601782019050919050565b7f206973206d697373696e6720726f6c6520000000000000000000000000000000600082015250565b6000614c6a6011836146a9565b9150614c7582614c34565b601182019050919050565b6000614c8b82614c11565b9150614c9782856146b4565b9150614ca282614c5d565b9150614cae82846146b4565b91508190509392505050565b7f4552433732313a207472616e736665722066726f6d20696e636f72726563742060008201527f6f776e6572000000000000000000000000000000000000000000000000000000602082015250565b6000614d1660258361353f565b9150614d2182614cba565b604082019050919050565b60006020820190508181036000830152614d4581614d09565b9050919050565b7f4552433732313a207472616e7366657220746f20746865207a65726f2061646460008201527f7265737300000000000000000000000000000000000000000000000000000000602082015250565b6000614da860248361353f565b9150614db382614d4c565b604082019050919050565b60006020820190508181036000830152614dd781614d9b565b9050919050565b7f5061757361626c653a206e6f7420706175736564000000000000000000000000600082015250565b6000614e1460148361353f565b9150614e1f82614dde565b602082019050919050565b60006020820190508181036000830152614e4381614e07565b9050919050565b7f5061757361626c653a2070617573656400000000000000000000000000000000600082015250565b6000614e8060108361353f565b9150614e8b82614e4a565b602082019050919050565b60006020820190508181036000830152614eaf81614e73565b9050919050565b600081519050919050565b600082825260208201905092915050565b6000614edd82614eb6565b614ee78185614ec1565b9350614ef7818560208601613550565b614f008161357a565b840191505092915050565b6000608082019050614f20600083018761367b565b614f2d602083018661367b565b614f3a6040830185613762565b8181036060830152614f4c8184614ed2565b905095945050505050565b600081519050614f66816134a5565b92915050565b600060208284031215614f8257614f8161346f565b5b6000614f9084828501614f57565b91505092915050565b6000614fa4826135e6565b915060008203614fb757614fb661405d565b5b600182039050919050565b7f537472696e67733a20686578206c656e67746820696e73756666696369656e74600082015250565b6000614ff860208361353f565b915061500382614fc2565b602082019050919050565b6000602082019050818103600083015261502781614feb565b9050919050565b7f4d617820737570706c7920726561636865642e00000000000000000000000000600082015250565b600061506460138361353f565b915061506f8261502e565b602082019050919050565b6000602082019050818103600083015261509381615057565b9050919050565b7f4e487b7100000000000000000000000000000000000000000000000000000000600052603160045260246000fd5b7f4552433732313a206d696e7420746f20746865207a65726f2061646472657373600082015250565b60006150ff60208361353f565b915061510a826150c9565b602082019050919050565b6000602082019050818103600083015261512e816150f2565b9050919050565b7f4552433732313a20746f6b656e20616c7265616479206d696e74656400000000600082015250565b600061516b601c8361353f565b915061517682615135565b602082019050919050565b6000602082019050818103600083015261519a8161515e565b905091905056fea26469706673582212202f2945f26fb4c9006c654aa4ddd7e78e85cdfbcf780b02976ee8b12afee92a3464736f6c63430008110033",
  "linkReferences": {},
  "deployedLinkReferences": {}
}